{
  "contractName": "Disable",
  "abi": [
    {
      "constant": true,
      "inputs": [],
      "name": "owner",
      "outputs": [
        {
          "name": "",
          "type": "address"
        }
      ],
      "payable": false,
      "stateMutability": "view",
      "type": "function"
    },
    {
      "constant": false,
      "inputs": [
        {
          "name": "newOwner",
          "type": "address"
        }
      ],
      "name": "transferOwnership",
      "outputs": [],
      "payable": false,
      "stateMutability": "nonpayable",
      "type": "function"
    },
    {
      "anonymous": false,
      "inputs": [],
      "name": "Disabled",
      "type": "event"
    },
    {
      "anonymous": false,
      "inputs": [
        {
          "indexed": true,
          "name": "previousOwner",
          "type": "address"
        },
        {
          "indexed": true,
          "name": "newOwner",
          "type": "address"
        }
      ],
      "name": "OwnershipTransferred",
      "type": "event"
    },
    {
      "constant": false,
      "inputs": [],
      "name": "disable",
      "outputs": [],
      "payable": false,
      "stateMutability": "nonpayable",
      "type": "function"
    }
  ],
  "bytecode": "0x606060405260008054600160a060020a033316600160a860020a0319909116179055610212806100306000396000f3006060604052600436106100565763ffffffff7c01000000000000000000000000000000000000000000000000000000006000350416632f2770db811461005b5780638da5cb5b14610070578063f2fde38b1461009f575b600080fd5b341561006657600080fd5b61006e6100be565b005b341561007b57600080fd5b61008361013c565b604051600160a060020a03909116815260200160405180910390f35b34156100aa57600080fd5b61006e600160a060020a036004351661014b565b60005433600160a060020a039081169116146100d957600080fd5b6000805474ff00000000000000000000000000000000000000001916740100000000000000000000000000000000000000001790557f75884cdadc4a89e8b545db800057f06ec7f5338a08183c7ba515f2bfdd9fe1e160405160405180910390a1565b600054600160a060020a031681565b60005433600160a060020a0390811691161461016657600080fd5b600160a060020a038116151561017b57600080fd5b600054600160a060020a0380831691167f8be0079c531659141344cd1fd0a4f28419497f9722a3daafe3b4186f6b6457e060405160405180910390a36000805473ffffffffffffffffffffffffffffffffffffffff1916600160a060020a03929092169190911790555600a165627a7a72305820b84b33de09e322e3b6ff87baed8a544ad9569ad146d6941b555ac5029bc9cd870029",
  "source": "pragma solidity 0.4.21;\n\nimport \"./installedContracts/Ownable.sol\";\n\ncontract Disable is Ownable {\n\n    bool disabled = false;\n\n    event Disabled();\n\n    /**\n    * @dev Throws if addSupply is disabled.\n    */\n    modifier notDisabled() {\n        require(disabled == false);\n        _;\n    }\n\n    function disable() external onlyOwner{\n        disabled = true;\n        emit Disabled();\n    }\n\n\n}",
  "sourcePath": "/home/cyril/Documents/2GetherProjects/ERC20_2GB_Token/contracts/Disable.sol",
  "compiler": {
    "name": "solc",
    "version": "0.4.21+commit.dfe3193c.Emscripten.clang"
  },
  "schemaVersion": "2.0.0",
  "updatedAt": "2018-04-19T13:54:34.299Z"
}