{
  "contractName": "Supply",
  "abi": [
    {
      "constant": true,
      "inputs": [],
      "name": "totalSupply",
      "outputs": [
        {
          "name": "",
          "type": "uint256"
        }
      ],
      "payable": false,
      "stateMutability": "view",
      "type": "function"
    },
    {
      "constant": false,
      "inputs": [],
      "name": "disable",
      "outputs": [],
      "payable": false,
      "stateMutability": "nonpayable",
      "type": "function"
    },
    {
      "constant": true,
      "inputs": [
        {
          "name": "_owner",
          "type": "address"
        }
      ],
      "name": "balanceOf",
      "outputs": [
        {
          "name": "balance",
          "type": "uint256"
        }
      ],
      "payable": false,
      "stateMutability": "view",
      "type": "function"
    },
    {
      "constant": true,
      "inputs": [],
      "name": "owner",
      "outputs": [
        {
          "name": "",
          "type": "address"
        }
      ],
      "payable": false,
      "stateMutability": "view",
      "type": "function"
    },
    {
      "constant": false,
      "inputs": [
        {
          "name": "_to",
          "type": "address"
        },
        {
          "name": "_value",
          "type": "uint256"
        }
      ],
      "name": "transfer",
      "outputs": [
        {
          "name": "",
          "type": "bool"
        }
      ],
      "payable": false,
      "stateMutability": "nonpayable",
      "type": "function"
    },
    {
      "constant": false,
      "inputs": [
        {
          "name": "newOwner",
          "type": "address"
        }
      ],
      "name": "transferOwnership",
      "outputs": [],
      "payable": false,
      "stateMutability": "nonpayable",
      "type": "function"
    },
    {
      "anonymous": false,
      "inputs": [
        {
          "indexed": true,
          "name": "_from",
          "type": "address"
        },
        {
          "indexed": false,
          "name": "_amount",
          "type": "uint256"
        }
      ],
      "name": "AddSupply",
      "type": "event"
    },
    {
      "anonymous": false,
      "inputs": [],
      "name": "Disabled",
      "type": "event"
    },
    {
      "anonymous": false,
      "inputs": [
        {
          "indexed": true,
          "name": "previousOwner",
          "type": "address"
        },
        {
          "indexed": true,
          "name": "newOwner",
          "type": "address"
        }
      ],
      "name": "OwnershipTransferred",
      "type": "event"
    },
    {
      "anonymous": false,
      "inputs": [
        {
          "indexed": true,
          "name": "from",
          "type": "address"
        },
        {
          "indexed": true,
          "name": "to",
          "type": "address"
        },
        {
          "indexed": false,
          "name": "value",
          "type": "uint256"
        }
      ],
      "name": "Transfer",
      "type": "event"
    },
    {
      "constant": false,
      "inputs": [
        {
          "name": "_amount",
          "type": "uint256"
        },
        {
          "name": "_target",
          "type": "address"
        }
      ],
      "name": "addSupply",
      "outputs": [],
      "payable": false,
      "stateMutability": "nonpayable",
      "type": "function"
    }
  ],
  "bytecode": "0x60606040526003805460ff1916905560008054600160a060020a033316600160a060020a03199091161790556104d98061003a6000396000f3006060604052600436106100825763ffffffff7c010000000000000000000000000000000000000000000000000000000060003504166318160ddd81146100875780632f2770db146100ac57806370a08231146100c15780638da5cb5b146100e0578063946c80ab1461010f578063a9059cbb14610131578063f2fde38b14610167575b600080fd5b341561009257600080fd5b61009a610186565b60405190815260200160405180910390f35b34156100b757600080fd5b6100bf61018c565b005b34156100cc57600080fd5b61009a600160a060020a03600435166101e2565b34156100eb57600080fd5b6100f36101fd565b604051600160a060020a03909116815260200160405180910390f35b341561011a57600080fd5b6100bf600435600160a060020a036024351661020c565b341561013c57600080fd5b610153600160a060020a03600435166024356102f2565b604051901515815260200160405180910390f35b341561017257600080fd5b6100bf600160a060020a03600435166103ed565b60025490565b60005433600160a060020a039081169116146101a757600080fd5b6003805460ff191660011790557f75884cdadc4a89e8b545db800057f06ec7f5338a08183c7ba515f2bfdd9fe1e160405160405180910390a1565b600160a060020a031660009081526001602052604090205490565b600054600160a060020a031681565b60005433600160a060020a0390811691161461022757600080fd5b60035460ff161561023757600080fd5b600160a060020a038116151561024c57600080fd5b6000821161025957600080fd5b600160a060020a038116600090815260016020526040902054610282908363ffffffff61048816565b600160a060020a0382166000908152600160205260409020556002546102ae908363ffffffff61048816565b600255600160a060020a0381167f478a0d5fe0fdc1f1b6b58408b1cf6d3c58657b0127b7b036868a13fea37134a08360405190815260200160405180910390a25050565b6000600160a060020a038316151561030957600080fd5b600160a060020a03331660009081526001602052604090205482111561032e57600080fd5b600160a060020a033316600090815260016020526040902054610357908363ffffffff61049b16565b600160a060020a03338116600090815260016020526040808220939093559085168152205461038c908363ffffffff61048816565b600160a060020a0380851660008181526001602052604090819020939093559133909116907fddf252ad1be2c89b69c2b068fc378daa952ba7f163c4a11628f55a4df523b3ef9085905190815260200160405180910390a350600192915050565b60005433600160a060020a0390811691161461040857600080fd5b600160a060020a038116151561041d57600080fd5b600054600160a060020a0380831691167f8be0079c531659141344cd1fd0a4f28419497f9722a3daafe3b4186f6b6457e060405160405180910390a36000805473ffffffffffffffffffffffffffffffffffffffff1916600160a060020a0392909216919091179055565b8181018281101561049557fe5b92915050565b6000828211156104a757fe5b509003905600a165627a7a72305820df29826fe2179b2df8750a416b249650c0a2424f25505e9c60be144a9e68e6040029",
  "source": "pragma solidity 0.4.21;\n\nimport \"./installedContracts/BasicToken.sol\";\nimport \"./Disable.sol\";\n\ncontract Supply is Ownable, BasicToken, Disable { \n\n    event AddSupply(address indexed _from, uint _amount);\n\n    /**\n    * @notice add supply to the account\n    * @param _amount The amount of token to be created\n    * @param _target The address where to add the Newly create tokens\n    */\n    function addSupply(uint _amount, address _target) external onlyOwner notDisabled {\n        require(_target != address(0));\n        require (_amount > 0);\n\n        balances[_target] = balances[_target].add(_amount);\n        totalSupply_ = totalSupply_.add(_amount);\n        emit AddSupply(_target, _amount);\n    }\n\n}",
  "sourcePath": "/home/cyril/Documents/2GetherProjects/ERC20_2GB_Token/contracts/Supply.sol",
  "compiler": {
    "name": "solc",
    "version": "0.4.21+commit.dfe3193c.Emscripten.clang"
  },
  "schemaVersion": "2.0.0",
  "updatedAt": "2018-04-19T13:54:34.300Z"
}