{
  "contractName": "Token2GB",
  "abi": [
    {
      "constant": true,
      "inputs": [],
      "name": "name",
      "outputs": [
        {
          "name": "",
          "type": "string"
        }
      ],
      "payable": false,
      "stateMutability": "view",
      "type": "function"
    },
    {
      "constant": false,
      "inputs": [
        {
          "name": "_spender",
          "type": "address"
        },
        {
          "name": "_value",
          "type": "uint256"
        }
      ],
      "name": "approve",
      "outputs": [
        {
          "name": "",
          "type": "bool"
        }
      ],
      "payable": false,
      "stateMutability": "nonpayable",
      "type": "function"
    },
    {
      "constant": true,
      "inputs": [],
      "name": "totalSupply",
      "outputs": [
        {
          "name": "",
          "type": "uint256"
        }
      ],
      "payable": false,
      "stateMutability": "view",
      "type": "function"
    },
    {
      "constant": false,
      "inputs": [
        {
          "name": "_from",
          "type": "address"
        },
        {
          "name": "_to",
          "type": "address"
        },
        {
          "name": "_value",
          "type": "uint256"
        }
      ],
      "name": "transferFrom",
      "outputs": [
        {
          "name": "",
          "type": "bool"
        }
      ],
      "payable": false,
      "stateMutability": "nonpayable",
      "type": "function"
    },
    {
      "constant": false,
      "inputs": [],
      "name": "disable",
      "outputs": [],
      "payable": false,
      "stateMutability": "nonpayable",
      "type": "function"
    },
    {
      "constant": true,
      "inputs": [],
      "name": "decimals",
      "outputs": [
        {
          "name": "",
          "type": "uint8"
        }
      ],
      "payable": false,
      "stateMutability": "view",
      "type": "function"
    },
    {
      "constant": false,
      "inputs": [
        {
          "name": "_spender",
          "type": "address"
        },
        {
          "name": "_subtractedValue",
          "type": "uint256"
        }
      ],
      "name": "decreaseApproval",
      "outputs": [
        {
          "name": "",
          "type": "bool"
        }
      ],
      "payable": false,
      "stateMutability": "nonpayable",
      "type": "function"
    },
    {
      "constant": true,
      "inputs": [
        {
          "name": "_owner",
          "type": "address"
        }
      ],
      "name": "balanceOf",
      "outputs": [
        {
          "name": "balance",
          "type": "uint256"
        }
      ],
      "payable": false,
      "stateMutability": "view",
      "type": "function"
    },
    {
      "constant": true,
      "inputs": [],
      "name": "owner",
      "outputs": [
        {
          "name": "",
          "type": "address"
        }
      ],
      "payable": false,
      "stateMutability": "view",
      "type": "function"
    },
    {
      "constant": false,
      "inputs": [
        {
          "name": "_amount",
          "type": "uint256"
        },
        {
          "name": "_target",
          "type": "address"
        }
      ],
      "name": "addSupply",
      "outputs": [],
      "payable": false,
      "stateMutability": "nonpayable",
      "type": "function"
    },
    {
      "constant": true,
      "inputs": [],
      "name": "symbol",
      "outputs": [
        {
          "name": "",
          "type": "string"
        }
      ],
      "payable": false,
      "stateMutability": "view",
      "type": "function"
    },
    {
      "constant": false,
      "inputs": [
        {
          "name": "_to",
          "type": "address"
        },
        {
          "name": "_value",
          "type": "uint256"
        }
      ],
      "name": "transfer",
      "outputs": [
        {
          "name": "",
          "type": "bool"
        }
      ],
      "payable": false,
      "stateMutability": "nonpayable",
      "type": "function"
    },
    {
      "constant": false,
      "inputs": [
        {
          "name": "_spender",
          "type": "address"
        },
        {
          "name": "_addedValue",
          "type": "uint256"
        }
      ],
      "name": "increaseApproval",
      "outputs": [
        {
          "name": "",
          "type": "bool"
        }
      ],
      "payable": false,
      "stateMutability": "nonpayable",
      "type": "function"
    },
    {
      "constant": true,
      "inputs": [
        {
          "name": "_owner",
          "type": "address"
        },
        {
          "name": "_spender",
          "type": "address"
        }
      ],
      "name": "allowance",
      "outputs": [
        {
          "name": "",
          "type": "uint256"
        }
      ],
      "payable": false,
      "stateMutability": "view",
      "type": "function"
    },
    {
      "constant": false,
      "inputs": [
        {
          "name": "newOwner",
          "type": "address"
        }
      ],
      "name": "transferOwnership",
      "outputs": [],
      "payable": false,
      "stateMutability": "nonpayable",
      "type": "function"
    },
    {
      "inputs": [],
      "payable": false,
      "stateMutability": "nonpayable",
      "type": "constructor"
    },
    {
      "anonymous": false,
      "inputs": [
        {
          "indexed": true,
          "name": "_from",
          "type": "address"
        },
        {
          "indexed": false,
          "name": "_amount",
          "type": "uint256"
        }
      ],
      "name": "AddSupply",
      "type": "event"
    },
    {
      "anonymous": false,
      "inputs": [],
      "name": "Disabled",
      "type": "event"
    },
    {
      "anonymous": false,
      "inputs": [
        {
          "indexed": true,
          "name": "previousOwner",
          "type": "address"
        },
        {
          "indexed": true,
          "name": "newOwner",
          "type": "address"
        }
      ],
      "name": "OwnershipTransferred",
      "type": "event"
    },
    {
      "anonymous": false,
      "inputs": [
        {
          "indexed": true,
          "name": "owner",
          "type": "address"
        },
        {
          "indexed": true,
          "name": "spender",
          "type": "address"
        },
        {
          "indexed": false,
          "name": "value",
          "type": "uint256"
        }
      ],
      "name": "Approval",
      "type": "event"
    },
    {
      "anonymous": false,
      "inputs": [
        {
          "indexed": true,
          "name": "from",
          "type": "address"
        },
        {
          "indexed": true,
          "name": "to",
          "type": "address"
        },
        {
          "indexed": false,
          "name": "value",
          "type": "uint256"
        }
      ],
      "name": "Transfer",
      "type": "event"
    }
  ],
  "bytecode": "0x60606040526006805461ff0019169055341561001a57600080fd5b604080519081016040908152601382527f3247657468657241697264726f70546f6b656e0000000000000000000000000060208301528051908101604052600381527f3247420000000000000000000000000000000000000000000000000000000000602082015260008054600160a060020a03191633600160a060020a0316179055601260048380516100b29291602001906100e3565b5060058280516100c69291602001906100e3565b506006805460ff191660ff929092169190911790555061017e9050565b828054600181600116156101000203166002900490600052602060002090601f016020900481019282601f1061012457805160ff1916838001178555610151565b82800160010185558215610151579182015b82811115610151578251825591602001919060010190610136565b5061015d929150610161565b5090565b61017b91905b8082111561015d5760008155600101610167565b90565b610b7a8061018d6000396000f3006060604052600436106100da5763ffffffff7c010000000000000000000000000000000000000000000000000000000060003504166306fdde0381146100df578063095ea7b31461016957806318160ddd1461019f57806323b872dd146101c45780632f2770db146101ec578063313ce56714610201578063661884631461022a57806370a082311461024c5780638da5cb5b1461026b578063946c80ab1461029a57806395d89b41146102bc578063a9059cbb146102cf578063d73dd623146102f1578063dd62ed3e14610313578063f2fde38b14610338575b600080fd5b34156100ea57600080fd5b6100f2610357565b60405160208082528190810183818151815260200191508051906020019080838360005b8381101561012e578082015183820152602001610116565b50505050905090810190601f16801561015b5780820380516001836020036101000a031916815260200191505b509250505060405180910390f35b341561017457600080fd5b61018b600160a060020a03600435166024356103f5565b604051901515815260200160405180910390f35b34156101aa57600080fd5b6101b2610461565b60405190815260200160405180910390f35b34156101cf57600080fd5b61018b600160a060020a0360043581169060243516604435610467565b34156101f757600080fd5b6101ff6105e9565b005b341561020c57600080fd5b610214610641565b60405160ff909116815260200160405180910390f35b341561023557600080fd5b61018b600160a060020a036004351660243561064a565b341561025757600080fd5b6101b2600160a060020a0360043516610744565b341561027657600080fd5b61027e61075f565b604051600160a060020a03909116815260200160405180910390f35b34156102a557600080fd5b6101ff600435600160a060020a036024351661076e565b34156102c757600080fd5b6100f2610859565b34156102da57600080fd5b61018b600160a060020a03600435166024356108c4565b34156102fc57600080fd5b61018b600160a060020a03600435166024356109bf565b341561031e57600080fd5b6101b2600160a060020a0360043581169060243516610a63565b341561034357600080fd5b6101ff600160a060020a0360043516610a8e565b60048054600181600116156101000203166002900480601f0160208091040260200160405190810160405280929190818152602001828054600181600116156101000203166002900480156103ed5780601f106103c2576101008083540402835291602001916103ed565b820191906000526020600020905b8154815290600101906020018083116103d057829003601f168201915b505050505081565b600160a060020a03338116600081815260036020908152604080832094871680845294909152808220859055909291907f8c5be1e5ebec7d5bd14f71427d1e84f3dd0314c0f7b2291e5b200ac8c7c3b9259085905190815260200160405180910390a350600192915050565b60025490565b6000600160a060020a038316151561047e57600080fd5b600160a060020a0384166000908152600160205260409020548211156104a357600080fd5b600160a060020a03808516600090815260036020908152604080832033909416835292905220548211156104d657600080fd5b600160a060020a0384166000908152600160205260409020546104ff908363ffffffff610b2916565b600160a060020a038086166000908152600160205260408082209390935590851681522054610534908363ffffffff610b3b16565b600160a060020a0380851660009081526001602090815260408083209490945587831682526003815283822033909316825291909152205461057c908363ffffffff610b2916565b600160a060020a03808616600081815260036020908152604080832033861684529091529081902093909355908516917fddf252ad1be2c89b69c2b068fc378daa952ba7f163c4a11628f55a4df523b3ef9085905190815260200160405180910390a35060019392505050565b60005433600160a060020a0390811691161461060457600080fd5b6006805461ff0019166101001790557f75884cdadc4a89e8b545db800057f06ec7f5338a08183c7ba515f2bfdd9fe1e160405160405180910390a1565b60065460ff1681565b600160a060020a033381166000908152600360209081526040808320938616835292905290812054808311156106a757600160a060020a0333811660009081526003602090815260408083209388168352929052908120556106de565b6106b7818463ffffffff610b2916565b600160a060020a033381166000908152600360209081526040808320938916835292905220555b600160a060020a0333811660008181526003602090815260408083209489168084529490915290819020547f8c5be1e5ebec7d5bd14f71427d1e84f3dd0314c0f7b2291e5b200ac8c7c3b925915190815260200160405180910390a35060019392505050565b600160a060020a031660009081526001602052604090205490565b600054600160a060020a031681565b60005433600160a060020a0390811691161461078957600080fd5b600654610100900460ff161561079e57600080fd5b600160a060020a03811615156107b357600080fd5b600082116107c057600080fd5b600160a060020a0381166000908152600160205260409020546107e9908363ffffffff610b3b16565b600160a060020a038216600090815260016020526040902055600254610815908363ffffffff610b3b16565b600255600160a060020a0381167f478a0d5fe0fdc1f1b6b58408b1cf6d3c58657b0127b7b036868a13fea37134a08360405190815260200160405180910390a25050565b60058054600181600116156101000203166002900480601f0160208091040260200160405190810160405280929190818152602001828054600181600116156101000203166002900480156103ed5780601f106103c2576101008083540402835291602001916103ed565b6000600160a060020a03831615156108db57600080fd5b600160a060020a03331660009081526001602052604090205482111561090057600080fd5b600160a060020a033316600090815260016020526040902054610929908363ffffffff610b2916565b600160a060020a03338116600090815260016020526040808220939093559085168152205461095e908363ffffffff610b3b16565b600160a060020a0380851660008181526001602052604090819020939093559133909116907fddf252ad1be2c89b69c2b068fc378daa952ba7f163c4a11628f55a4df523b3ef9085905190815260200160405180910390a350600192915050565b600160a060020a0333811660009081526003602090815260408083209386168352929052908120546109f7908363ffffffff610b3b16565b600160a060020a0333811660008181526003602090815260408083209489168084529490915290819020849055919290917f8c5be1e5ebec7d5bd14f71427d1e84f3dd0314c0f7b2291e5b200ac8c7c3b92591905190815260200160405180910390a350600192915050565b600160a060020a03918216600090815260036020908152604080832093909416825291909152205490565b60005433600160a060020a03908116911614610aa957600080fd5b600160a060020a0381161515610abe57600080fd5b600054600160a060020a0380831691167f8be0079c531659141344cd1fd0a4f28419497f9722a3daafe3b4186f6b6457e060405160405180910390a36000805473ffffffffffffffffffffffffffffffffffffffff1916600160a060020a0392909216919091179055565b600082821115610b3557fe5b50900390565b81810182811015610b4857fe5b929150505600a165627a7a72305820a52d24c1d5f5640ba747c87c314b047bbb8137acd6eddc012ec3b5460b3ab7170029",
  "source": "pragma solidity 0.4.21;\n\n/**\n/// @title Token2GB Contract\n/// @author 2GetherBlockchain Team\n*/\n\nimport \"./installedContracts/StandardToken.sol\";\nimport \"./installedContracts/DetailedERC20.sol\";\nimport \"./installedContracts/StandardToken.sol\";\nimport \"./Supply.sol\";\n\n/**\n * @title Token2GB\n*/\ncontract Token2GB is StandardToken, DetailedERC20, Supply {\n    \n    function Token2GB() \n    DetailedERC20(\"2GetherAirdropToken\", \"2GB\", 18)       \n    public {}\n\n}",
  "sourcePath": "/home/darek/2B/ERC20_2GB_Token/contracts/Token2GB.sol",
  "compiler": {
    "name": "solc",
    "version": "0.4.21+commit.dfe3193c.Emscripten.clang"
  },
  "schemaVersion": "2.0.0",
  "updatedAt": "2018-04-19T14:45:24.868Z"
}